:020000021000EC
:10C0000000000220B5C30100DDC30100DFC3010051
:10C01000E1C30100E3C30100E5C30100000000002B
:10C02000000000000000000000000000E7C3010065
:10C03000E9C3010000000000EBC30100EDC30100F3
:10C04000EFC30100EFC30100EFC30100EFC3010024
:10C05000EFC30100EFC30100EFC30100EFC3010014
:10C06000EFC30100EFC30100EFC30100EFC3010004
:10C07000EFC30100EFC30100EFC30100EFC30100F4
:10C08000EFC30100EFC30100EFC30100EFC30100E4
:10C09000EFC30100EFC30100EFC30100EFC30100D4
:10C0A000EFC30100EFC30100EFC30100EFC30100C4
:10C0B000EFC30100EFC3010000000000000000001A
:10C0C000EFC30100EFC30100EFC30100EFC30100A4
:10C0D000EFC30100EFC30100EFC30100EFC3010094
:10C0E000EFC30100EFC30100EFC301000000000037
:10C0F00000000000EFC3010000000000EFC30100DA
:10C10000000000000000000000000000000000002F
:10C11000000000000000000000000000000000001F
:10C12000000000000000000000000000000000000F
:10C1300000000000000000000000000000000000FF
:10C1400000000000000000000000000000000000EF
:10C1500000000000000000000000000000000000DF
:10C1600000000000000000000000000000000000CF
:10C1700000000000000000000000000000000000BF
:10C1800000000000000000000000000000000000AF
:10C19000000000000000000000000000000000009F
:10C1A000000000000000000000000000000000008F
:10C1B000000000000000000000000000000000007F
:10C1C000000000000000000000000000000000006F
:10C1D000000000000000000000000000000000005F
:10C1E000000000000000000000000000000000004F
:10C1F000000000000000000000000000000000003F
:10C2000010B5054C237833B9044B13B10448AFF390
:10C2100000800123237010BD0412002000000000E4
:10C22000C8C8010008B5034B1BB103490348AFF36D
:10C23000008008BD0000000008120020C8C80100EE
:10C24000A3F5803A704700BF174B002B08BF134B74
:10C250009D46FFF7F5FF00218B460F461348144A11
:10C26000121A00F0DBFA0E4B002B00D098470D4B52
:10C27000002B00D098470020002104000D000D483D
:10C28000002802D00C48AFF3008000F0A3FA200091
:10C29000290000F03DF900F089FA00BF0000080015
:10C2A0000000000000000000000002200412002036
:10C2B0002412002000000000000000002DE9F047DB
:10C2C000324CDFF8D8802378423BDBB2102B98BF8A
:10C2D0002F4A054694BF52F8230000200E4600F076
:10C2E00099F898F8003025704BB146B1294F344683
:10C2F00047F001074FF47A40B847013CFAD100F00B
:10C300004FF8074610B93846BDE8F087224B423D4A
:10C31000D3F81035EDB2102DC3F380199ABF1C4B22
:10C3200053F825A04FF0000A504600F061F8AEB176
:10C33000184D344645F001054FF47A40A847013CBA
:10C34000FAD1154BD3F81035C3F38013994513D0A8
:10C35000012388F800303846BDE8F0870E4BD3F84B
:10C360001035C3F380139945F2D1504600F052F8CE
:10C37000002388F80030C6E7504600F04BF84FF431
:10C380007A40A847013EFAD1F2E700BF2012002010
:10C3900058C80100A0C8010000030050211200206D
:10C3A000034BD3F810056FEA901000F001007047BE
:10C3B000000300500649074A074B9B1A03DD043B64
:10C3C000C858D050FBDC00F0C3F8FFF73DFF000079
:10C3D000D4C801009811002004120020FEE7FEE7F7
:10C3E000FEE7FEE7FEE7FEE7FEE7FEE7FEE7FEE725
:10C3F000064B1A5C1F2A86BF054902F01F024FF048
:10C40000A04101239340C1F80C357047A8C8010032
:10C4100000030050064B1A5C1F2A86BF054902F034
:10C420001F024FF0A04101239340C1F80835704727
:10C43000A8C8010000030050C30706D4830742BF09
:10C440002F4B0C22C3F81827704710B44FF08043CD
:10C45000D3F84036DA0723D44FF0A043284903220B
:10C460004024C3F81827C3F82027C1F82427C3F8AD
:10C470003027C3F808454FF400724FF48074C3F8B6
:10C480000845C1F808254FF480528107C3F80825F4
:10C4900003D51B4B0C22C3F818275DF8044B7047DB
:10C4A0004FF01023D3F8043303F00703072BD3D145
:10C4B000144A0123C2F80435D2F80034002BFBD013
:10C4C0004FF010210020D1F804330E4C23F0070365
:10C4D00043F00403C1F80433C2F80405D4F800346F
:10C4E000002BFBD0BFF34F8F0749084BCA6802F4FB
:10C4F000E0621343CB60BFF34F8F00BFFDE700BF87
:10C500000003005000E0014000ED00E00400FA05E7
:10C5100038B50120FFF790FF0B4B0C4D0C22C3F8F0
:10C5200018270024FFF73CFF0028FBD0285D4FF4BC
:10C530007A71FFF7C3FE00B10134284600F076F9A6
:10C54000A04208BF0024EDE700030050ACC8010082
:10C5500010B44FF08053D3F83021082A23D0844AF6
:10C56000D2F8883043F47003C2F88830BFF34F8F9D
:10C57000BFF36F8F4FF08053D3F83021082A00F0BB
:10C58000B3804FF01023D3F80022002AC0F2BF80FE
:10C59000D3F80432002BC0F2BA80764B764A1A6088
:10C5A0005DF8044B70474FF080410020C1F80C014A
:10C5B000724AC1F81001C1F83805D3F80414C2F862
:10C5C0002015D3F80814C2F82415D3F80C14C2F8B7
:10C5D0002815D3F81014C2F82C15D3F81414C2F887
:10C5E0003015D3F81814C2F83415D3F81C14C2F857
:10C5F0004015D3F82014C2F84415D3F82414C2F817
:10C600004815D3F82814C2F84C15D3F82C14C2F8E6
:10C610005015D3F83014C2F85415D3F83414C2F8B6
:10C620006015D3F83814C2F86415D3F83C14C2F876
:10C630006815D3F84014C2F86C15D3F83411D3F848
:10C640004434C2F87035052942D84D4B5B5C1BB1B0
:10C650004C4B4D4AC3F88C264C4B5B5C73B14FF08E
:10C6600080534B49D3F83021FB20C1F81805082A24
:10C67000D3F834117FF473AF052929D8454B5B5C9F
:10C68000BBB14FF080524FF08040D2F85832D0F812
:10C69000E41ED2F8304121F00F0103F00F030B43E9
:10C6A000C0F8E43E082CD2F834117FF458AF0529C5
:10C6B0000ED8394B5B5C5BB14FF08053374AD3F8EF
:10C6C00030314FF40071082BC2F840167FF447AFA9
:10C6D0004FF08043D3F80024D2077FF540AF6FF0CE
:10C6E0000102C3F800243AE7D3F83431052B08D906
:10C6F0004FF010224FF08043D2F80822C3F858259B
:10C700003FE7274AD35C002B3FF43BAFF0E7254AD5
:10C710000123C2F80435D2F80034002BFBD04FF0CF
:10C72000102312211F4AC3F80012D2F80034002B44
:10C73000FBD04FF0102312211A4AC3F80412D2F88A
:10C740000034002BFBD000231649C2F80435D1F881
:10C750000034002BFBD0BFF34F8F0549124BCA6842
:10C7600002F4E0621343CB60BFF34F8F00BFFDE7DD
:10C7700000ED00E0981100200090D00300C00040C0
:10C78000BCC801000050004048810300BCC8010043
:10C7900000F00040BCC80100BCC80100009002408D
:10C7A000B4C8010000E001400400FA0508B5074BD9
:10C7B000044613B10021AFF30080054B1868836A6B
:10C7C00003B19847204600F039F800BF0000000090
:10C7D000C4C8010070B50D4D0D4C641BA41000269B
:10C7E000A64209D10B4D0C4C00F02AF8641BA41092
:10C7F0000026A64205D170BD55F8043B9847013686
:10C80000EEE755F8043B98470136F2E7FC110020AB
:10C81000FC110020FC1100200012002002440346FD
:10C82000934200D1704703F8011BF9E7034613F860
:10C83000012B002AFBD1181A01387047FEE700BF10
:10C84000F8B500BFF8BC08BC9E467047F8B500BFFD
:10C85000F8BC08BC9E4670470300000000000000C2
:10C8600000000000000000000000000002000000C6
:10C8700000000000000000000000000000000000B8
:10C8800000000000000000000000000000000000A8
:10C890000000000000000000010000000000000097
:10C8A0000338FDD8704700000608290C525247474C
:10C8B00047420000000000000101000001000000EC
:0CC8C000000000009C110020000000009F
:08C8CC0074F9FF7F0100000078
:10C8D4000090D003000000000000000000000000F1
:10C8E4000000000000000000000000000000000044
:10C8F4000000000000000000000000000000000034
:10C904000000000000000000000000000000000023
:10C914000000000000000000000000000000000013
:10C924000000000000000000000000000000000003
:0CC934000000000025C2010001C201004B
:040000031000C3B571
:00000001FF
