:020000021000EC
:10C0000000000220BDC20100E5C20100E7C201003C
:10C01000E9C20100EBC20100EDC201000000000016
:10C02000000000000000000000000000EFC201005E
:10C03000F1C2010000000000F3C20100F5C20100DE
:10C04000F7C20100F7C20100F7C20100F7C2010008
:10C05000F7C20100F7C20100F7C20100F7C20100F8
:10C06000F7C20100F7C20100F7C20100F7C20100E8
:10C07000F7C20100F7C20100F7C20100F7C20100D8
:10C08000F7C20100F7C20100F7C20100F7C20100C8
:10C09000F7C20100F7C20100F7C20100F7C20100B8
:10C0A000F7C20100F7C20100F7C20100F7C20100A8
:10C0B000F7C20100F7C2010000000000000000000C
:10C0C000F7C20100F7C20100F7C20100F7C2010088
:10C0D000F7C20100F7C20100F7C20100F7C2010078
:10C0E000F7C20100F7C20100F7C201000000000022
:10C0F00000000000F7C2010000000000F7C20100CC
:10C10000000000000000000000000000000000002F
:10C11000000000000000000000000000000000001F
:10C12000000000000000000000000000000000000F
:10C1300000000000000000000000000000000000FF
:10C1400000000000000000000000000000000000EF
:10C1500000000000000000000000000000000000DF
:10C1600000000000000000000000000000000000CF
:10C1700000000000000000000000000000000000BF
:10C1800000000000000000000000000000000000AF
:10C19000000000000000000000000000000000009F
:10C1A000000000000000000000000000000000008F
:10C1B000000000000000000000000000000000007F
:10C1C000000000000000000000000000000000006F
:10C1D000000000000000000000000000000000005F
:10C1E000000000000000000000000000000000004F
:10C1F000000000000000000000000000000000003F
:10C2000010B5054C237833B9044B13B10448AFF390
:10C2100000800123237010BD0412002000000000E4
:10C22000ACC7010008B5034B1BB103490348AFF38A
:10C23000008008BD0000000008120020ACC701000B
:10C24000A3F5803A704700BF174B002B08BF134B74
:10C250009D46FFF7F5FF00218B460F461348144A11
:10C26000121A00F075FA0E4B002B00D098470D4BB8
:10C27000002B00D098470020002104000D000D483D
:10C28000002802D00C48AFF3008000F03DFA2000F7
:10C29000290000F0C1F800F023FA00BF00000800F8
:10C2A0000000000000000000000002200412002036
:10C2B0002012002000000000000000000649074A8C
:10C2C000074B9B1A03DD043BC858D050FBDC00F041
:10C2D000D9F8FFF7B9FF0000B8C701009811002096
:10C2E00004120020FEE7FEE7FEE7FEE7FEE7FEE7BA
:10C2F000FEE7FEE7FEE7FEE7064B1A5C1F2A86BF55
:10C30000054902F01F024FF0A04101239340C1F8FC
:10C310000C3570477CC7010000030050064B1A5CC7
:10C320001F2A86BF054902F01F024FF0A0410123DA
:10C330009340C1F8083570477CC7010000030050E6
:10C34000C30706D4830742BF2F4B0C22C3F818271C
:10C35000704710B44FF08043D3F84036DA0723D447
:10C360004FF0A043284903224024C3F81827C3F8FC
:10C370002027C1F82427C3F83027C3F808454FF415
:10C3800000724FF48074C3F80845C1F808254FF4D3
:10C3900080528107C3F8082503D51B4B0C22C3F834
:10C3A00018275DF8044B70474FF01023D3F804337F
:10C3B00003F00703072BD3D1144A0123C2F8043535
:10C3C000D2F80034002BFBD04FF010210020D1F820
:10C3D00004330E4C23F0070343F00403C1F8043385
:10C3E000C2F80405D4F80034002BFBD0BFF34F8F04
:10C3F0000749084BCA6802F4E0621343CB60BFF3FD
:10C400004F8F00BFFDE700BF0003005000E0014078
:10C4100000ED00E00400FA052DE9F047012084B0AA
:10C42000FFF78EFF154B164D0FCBE94689E80F003D
:10C4300045F00105CA4600275AF8048BB8F1000FF1
:10C44000C8BF002616DD3846FFF756FF4FF4FA74D2
:10C450004FF47A40A847013CFAD13846FFF75EFF17
:10C460004FF4FA744FF47A40A847013CFAD10136F0
:10C47000B045E8D10137042FDED1DBE780C70100EA
:10C4800090C7010010B44FF08053D3F83021082A30
:10C4900023D0844AD2F8883043F47003C2F888303D
:10C4A000BFF34F8FBFF36F8F4FF08053D3F830211E
:10C4B000082A00F0B3804FF01023D3F80022002A9E
:10C4C000C0F2BF80D3F80432002BC0F2BA80764BA2
:10C4D000764A1A605DF8044B70474FF080410020A7
:10C4E000C1F80C01724AC1F81001C1F83805D3F83F
:10C4F0000414C2F82015D3F80814C2F82415D3F890
:10C500000C14C2F82815D3F81014C2F82C15D3F85F
:10C510001414C2F83015D3F81814C2F83415D3F82F
:10C520001C14C2F84015D3F82014C2F84415D3F8EF
:10C530002414C2F84815D3F82814C2F84C15D3F8BF
:10C540002C14C2F85015D3F83014C2F85415D3F88F
:10C550003414C2F86015D3F83814C2F86415D3F84F
:10C560003C14C2F86815D3F84014C2F86C15D3F81F
:10C570003411D3F84434C2F87035052942D84D4BF4
:10C580005B5C1BB14C4B4D4AC3F88C264C4B5B5C3F
:10C5900073B14FF080534B49D3F83021FB20C1F8E1
:10C5A0001805082AD3F834117FF473AF052929D868
:10C5B000454B5B5CBBB14FF080524FF08040D2F8EE
:10C5C0005832D0F8E41ED2F8304121F00F0103F0C8
:10C5D0000F030B43C0F8E43E082CD2F834117FF46B
:10C5E00058AF05290ED8394B5B5C5BB14FF08053D7
:10C5F000374AD3F830314FF40071082BC2F8401697
:10C600007FF447AF4FF08043D3F80024D2077FF583
:10C6100040AF6FF00102C3F800243AE7D3F8343199
:10C62000052B08D94FF010224FF08043D2F8082292
:10C63000C3F858253FE7274AD35C002B3FF43BAFB4
:10C64000F0E7254A0123C2F80435D2F80034002B64
:10C65000FBD04FF0102312211F4AC3F80012D2F86A
:10C660000034002BFBD04FF0102312211A4AC3F8DC
:10C670000412D2F80034002BFBD000231649C2F874
:10C680000435D1F80034002BFBD0BFF34F8F0549A0
:10C69000124BCA6802F4E0621343CB60BFF34F8FC2
:10C6A00000BFFDE700ED00E0981100200090D003EE
:10C6B00000C00040A0C701000050004048810300B6
:10C6C000A0C7010000F00040A0C70100A0C7010002
:10C6D0000090024098C7010000E001400400FA0504
:10C6E00008B5074B044613B10021AFF30080054B9A
:10C6F0001868836A03B19847204600F031F800BFFC
:10C7000000000000A8C7010070B50D4D0D4C641B62
:10C71000A4100026A64209D10B4D0C4C00F022F8C3
:10C72000641BA4100026A64205D170BD55F8043B39
:10C7300098470136EEE755F8043B98470136F2E793
:10C74000FC110020FC110020FC1100200012002030
:10C7500002440346934200D1704703F8011BF9E7F6
:10C76000FEE700BFF8B500BFF8BC08BC9E467047A6
:10C77000F8B500BFF8BC08BC9E4670470608290CF7
:10C78000060000000500000009000000090000008C
:10C790000338FDD8704700000000000001010000D0
:10C7A00001000000000000009C11002000000000BB
:08C7B00090FAFF7F0100000078
:10C7B8000090D0030000000000000000000000000E
:10C7C8000000000000000000000000000000000061
:10C7D8000000000000000000000000000000000051
:10C7E8000000000000000000000000000000000041
:10C7F8000000000000000000000000000000000031
:10C808000000000000000000000000000000000020
:0CC818000000000025C2010001C2010068
:040000031000C2BD6A
:00000001FF
